{
  "address": "0x35151cD630a0797fdF282c9B0ac6d3c26230Bc48",
  "abi": [
    {
      "inputs": [
        {
          "internalType": "address",
          "name": "owner",
          "type": "address"
        },
        {
          "internalType": "string",
          "name": "baseTokenURI",
          "type": "string"
        }
      ],
      "stateMutability": "nonpayable",
      "type": "constructor"
    },
    {
      "anonymous": false,
      "inputs": [
        {
          "indexed": true,
          "internalType": "address",
          "name": "owner",
          "type": "address"
        },
        {
          "indexed": true,
          "internalType": "address",
          "name": "approved",
          "type": "address"
        },
        {
          "indexed": true,
          "internalType": "uint256",
          "name": "tokenId",
          "type": "uint256"
        }
      ],
      "name": "Approval",
      "type": "event"
    },
    {
      "anonymous": false,
      "inputs": [
        {
          "indexed": true,
          "internalType": "address",
          "name": "owner",
          "type": "address"
        },
        {
          "indexed": true,
          "internalType": "address",
          "name": "operator",
          "type": "address"
        },
        {
          "indexed": false,
          "internalType": "bool",
          "name": "approved",
          "type": "bool"
        }
      ],
      "name": "ApprovalForAll",
      "type": "event"
    },
    {
      "anonymous": false,
      "inputs": [
        {
          "indexed": true,
          "internalType": "address",
          "name": "to",
          "type": "address"
        },
        {
          "indexed": false,
          "internalType": "uint256",
          "name": "tokenId",
          "type": "uint256"
        }
      ],
      "name": "Minted",
      "type": "event"
    },
    {
      "anonymous": false,
      "inputs": [
        {
          "indexed": true,
          "internalType": "address",
          "name": "previousOwner",
          "type": "address"
        },
        {
          "indexed": true,
          "internalType": "address",
          "name": "newOwner",
          "type": "address"
        }
      ],
      "name": "OwnershipTransferred",
      "type": "event"
    },
    {
      "anonymous": false,
      "inputs": [
        {
          "indexed": true,
          "internalType": "address",
          "name": "from",
          "type": "address"
        },
        {
          "indexed": true,
          "internalType": "address",
          "name": "to",
          "type": "address"
        },
        {
          "indexed": true,
          "internalType": "uint256",
          "name": "tokenId",
          "type": "uint256"
        }
      ],
      "name": "Transfer",
      "type": "event"
    },
    {
      "inputs": [],
      "name": "MAX_SUPPLY",
      "outputs": [
        {
          "internalType": "uint256",
          "name": "",
          "type": "uint256"
        }
      ],
      "stateMutability": "view",
      "type": "function"
    },
    {
      "inputs": [],
      "name": "PRICE",
      "outputs": [
        {
          "internalType": "uint256",
          "name": "",
          "type": "uint256"
        }
      ],
      "stateMutability": "view",
      "type": "function"
    },
    {
      "inputs": [
        {
          "internalType": "address",
          "name": "to",
          "type": "address"
        },
        {
          "internalType": "uint256",
          "name": "tokenId",
          "type": "uint256"
        }
      ],
      "name": "approve",
      "outputs": [],
      "stateMutability": "nonpayable",
      "type": "function"
    },
    {
      "inputs": [
        {
          "internalType": "address",
          "name": "owner",
          "type": "address"
        }
      ],
      "name": "balanceOf",
      "outputs": [
        {
          "internalType": "uint256",
          "name": "",
          "type": "uint256"
        }
      ],
      "stateMutability": "view",
      "type": "function"
    },
    {
      "inputs": [
        {
          "internalType": "uint256",
          "name": "tokenId",
          "type": "uint256"
        }
      ],
      "name": "getApproved",
      "outputs": [
        {
          "internalType": "address",
          "name": "",
          "type": "address"
        }
      ],
      "stateMutability": "view",
      "type": "function"
    },
    {
      "inputs": [],
      "name": "getBaseURI",
      "outputs": [
        {
          "internalType": "string",
          "name": "",
          "type": "string"
        }
      ],
      "stateMutability": "view",
      "type": "function"
    },
    {
      "inputs": [],
      "name": "getIpfsCid",
      "outputs": [
        {
          "internalType": "string",
          "name": "",
          "type": "string"
        }
      ],
      "stateMutability": "view",
      "type": "function"
    },
    {
      "inputs": [
        {
          "internalType": "address",
          "name": "owner",
          "type": "address"
        },
        {
          "internalType": "address",
          "name": "operator",
          "type": "address"
        }
      ],
      "name": "isApprovedForAll",
      "outputs": [
        {
          "internalType": "bool",
          "name": "",
          "type": "bool"
        }
      ],
      "stateMutability": "view",
      "type": "function"
    },
    {
      "inputs": [],
      "name": "name",
      "outputs": [
        {
          "internalType": "string",
          "name": "",
          "type": "string"
        }
      ],
      "stateMutability": "view",
      "type": "function"
    },
    {
      "inputs": [],
      "name": "owner",
      "outputs": [
        {
          "internalType": "address",
          "name": "",
          "type": "address"
        }
      ],
      "stateMutability": "view",
      "type": "function"
    },
    {
      "inputs": [
        {
          "internalType": "uint256",
          "name": "tokenId",
          "type": "uint256"
        }
      ],
      "name": "ownerOf",
      "outputs": [
        {
          "internalType": "address",
          "name": "",
          "type": "address"
        }
      ],
      "stateMutability": "view",
      "type": "function"
    },
    {
      "inputs": [],
      "name": "purcsedTokenCount",
      "outputs": [
        {
          "internalType": "uint256",
          "name": "",
          "type": "uint256"
        }
      ],
      "stateMutability": "view",
      "type": "function"
    },
    {
      "inputs": [],
      "name": "renounceOwnership",
      "outputs": [],
      "stateMutability": "nonpayable",
      "type": "function"
    },
    {
      "inputs": [],
      "name": "safeMint",
      "outputs": [],
      "stateMutability": "nonpayable",
      "type": "function"
    },
    {
      "inputs": [
        {
          "internalType": "address",
          "name": "from",
          "type": "address"
        },
        {
          "internalType": "address",
          "name": "to",
          "type": "address"
        },
        {
          "internalType": "uint256",
          "name": "tokenId",
          "type": "uint256"
        }
      ],
      "name": "safeTransferFrom",
      "outputs": [],
      "stateMutability": "nonpayable",
      "type": "function"
    },
    {
      "inputs": [
        {
          "internalType": "address",
          "name": "from",
          "type": "address"
        },
        {
          "internalType": "address",
          "name": "to",
          "type": "address"
        },
        {
          "internalType": "uint256",
          "name": "tokenId",
          "type": "uint256"
        },
        {
          "internalType": "bytes",
          "name": "data",
          "type": "bytes"
        }
      ],
      "name": "safeTransferFrom",
      "outputs": [],
      "stateMutability": "nonpayable",
      "type": "function"
    },
    {
      "inputs": [
        {
          "internalType": "address",
          "name": "operator",
          "type": "address"
        },
        {
          "internalType": "bool",
          "name": "approved",
          "type": "bool"
        }
      ],
      "name": "setApprovalForAll",
      "outputs": [],
      "stateMutability": "nonpayable",
      "type": "function"
    },
    {
      "inputs": [
        {
          "internalType": "string",
          "name": "cid",
          "type": "string"
        }
      ],
      "name": "setIpfsCid",
      "outputs": [],
      "stateMutability": "nonpayable",
      "type": "function"
    },
    {
      "inputs": [
        {
          "internalType": "bytes4",
          "name": "interfaceId",
          "type": "bytes4"
        }
      ],
      "name": "supportsInterface",
      "outputs": [
        {
          "internalType": "bool",
          "name": "",
          "type": "bool"
        }
      ],
      "stateMutability": "view",
      "type": "function"
    },
    {
      "inputs": [],
      "name": "symbol",
      "outputs": [
        {
          "internalType": "string",
          "name": "",
          "type": "string"
        }
      ],
      "stateMutability": "view",
      "type": "function"
    },
    {
      "inputs": [
        {
          "internalType": "uint256",
          "name": "tokenId",
          "type": "uint256"
        }
      ],
      "name": "tokenURI",
      "outputs": [
        {
          "internalType": "string",
          "name": "",
          "type": "string"
        }
      ],
      "stateMutability": "view",
      "type": "function"
    },
    {
      "inputs": [
        {
          "internalType": "address",
          "name": "from",
          "type": "address"
        },
        {
          "internalType": "address",
          "name": "to",
          "type": "address"
        },
        {
          "internalType": "uint256",
          "name": "tokenId",
          "type": "uint256"
        }
      ],
      "name": "transferFrom",
      "outputs": [],
      "stateMutability": "nonpayable",
      "type": "function"
    },
    {
      "inputs": [
        {
          "internalType": "address",
          "name": "newOwner",
          "type": "address"
        }
      ],
      "name": "transferOwnership",
      "outputs": [],
      "stateMutability": "nonpayable",
      "type": "function"
    }
  ],
  "transactionHash": "0x18480190570eaabd8397077c458570d45a02b50fbc27c2249fe1a72525af6d6a",
  "args": [
    "0xf41123669f91b482626b198bd72f2A1E6E62fB5a",
    "https://gateway.pinata.cloud/ipfs/Qm"
  ],
  "numDeployments": 1,
  "solcInputHash": "2a77385c9d2314835b6363ffc0148084",
  "bytecode": "0x60806040526000600855600b805460ff191690553480156200002057600080fd5b5060405162001c7538038062001c7583398101604081905262000043916200022c565b60405180604001604052806009815260200168636f6d6963426f6f6b60b81b8152506040518060400160405280600281526020016121a160f11b8152508160009081620000919190620003b1565b506001620000a08282620003b1565b505050620000bd620000b7620000df60201b60201c565b620000e3565b620000c88262000135565b6009620000d68282620003b1565b5050506200047d565b3390565b600680546001600160a01b038381166001600160a01b0319831681179093556040519116919082907f8be0079c531659141344cd1fd0a4f28419497f9722a3daafe3b4186f6b6457e090600090a35050565b6200013f620001b8565b6001600160a01b038116620001aa5760405162461bcd60e51b815260206004820152602660248201527f4f776e61626c653a206e6577206f776e657220697320746865207a65726f206160448201526564647265737360d01b60648201526084015b60405180910390fd5b620001b581620000e3565b50565b6006546001600160a01b03163314620002145760405162461bcd60e51b815260206004820181905260248201527f4f776e61626c653a2063616c6c6572206973206e6f7420746865206f776e65726044820152606401620001a1565b565b634e487b7160e01b600052604160045260246000fd5b600080604083850312156200024057600080fd5b82516001600160a01b03811681146200025857600080fd5b602084810151919350906001600160401b03808211156200027857600080fd5b818601915086601f8301126200028d57600080fd5b815181811115620002a257620002a262000216565b604051601f8201601f19908116603f01168101908382118183101715620002cd57620002cd62000216565b816040528281528986848701011115620002e657600080fd5b600093505b828410156200030a5784840186015181850187015292850192620002eb565b60008684830101528096505050505050509250929050565b600181811c908216806200033757607f821691505b6020821081036200035857634e487b7160e01b600052602260045260246000fd5b50919050565b601f821115620003ac57600081815260208120601f850160051c81016020861015620003875750805b601f850160051c820191505b81811015620003a85782815560010162000393565b5050505b505050565b81516001600160401b03811115620003cd57620003cd62000216565b620003e581620003de845462000322565b846200035e565b602080601f8311600181146200041d5760008415620004045750858301515b600019600386901b1c1916600185901b178555620003a8565b600085815260208120601f198616915b828110156200044e578886015182559484019460019091019084016200042d565b50858210156200046d5787850151600019600388901b60f8161c191681555b5050505050600190811b01905550565b6117e8806200048d6000396000f3fe608060405234801561001057600080fd5b506004361061014d5760003560e01c8063714c5398116100c3578063b88d4fde1161007c578063b88d4fde1461028b578063c87b56dd1461029e578063d16830f1146102b1578063d540fa8a146102c4578063e985e9c5146102cd578063f2fde38b1461030957600080fd5b8063714c539814610241578063715018a6146102495780638d859f3e146102515780638da5cb5b1461025f57806395d89b4114610270578063a22cb4651461027857600080fd5b806332cb6b0c1161011557806332cb6b0c146101e257806342842e0e146101f857806354181ded1461020b5780636352211e146102135780636871ee401461022657806370a082311461022e57600080fd5b806301ffc9a71461015257806306fdde031461017a578063081812fc1461018f578063095ea7b3146101ba57806323b872dd146101cf575b600080fd5b6101656101603660046111e0565b61031c565b60405190151581526020015b60405180910390f35b61018261036e565b604051610171919061124d565b6101a261019d366004611260565b610400565b6040516001600160a01b039091168152602001610171565b6101cd6101c8366004611295565b610427565b005b6101cd6101dd3660046112bf565b610541565b6101ea606481565b604051908152602001610171565b6101cd6102063660046112bf565b610572565b61018261058d565b6101a2610221366004611260565b61059c565b6101cd6105fc565b6101ea61023c3660046112fb565b6106ba565b610182610740565b6101cd61074f565b6101ea66038d7ea4c6800081565b6006546001600160a01b03166101a2565b610182610763565b6101cd610286366004611316565b610772565b6101cd6102993660046113de565b610781565b6101826102ac366004611260565b6107b9565b6101cd6102bf36600461145a565b61082d565b6101ea60085481565b6101656102db3660046114a3565b6001600160a01b03918216600090815260056020908152604080832093909416825291909152205460ff1690565b6101cd6103173660046112fb565b6108b0565b60006001600160e01b031982166380ac58cd60e01b148061034d57506001600160e01b03198216635b5e139f60e01b145b8061036857506301ffc9a760e01b6001600160e01b03198316145b92915050565b60606000805461037d906114d6565b80601f01602080910402602001604051908101604052809291908181526020018280546103a9906114d6565b80156103f65780601f106103cb576101008083540402835291602001916103f6565b820191906000526020600020905b8154815290600101906020018083116103d957829003601f168201915b5050505050905090565b600061040b82610929565b506000908152600460205260409020546001600160a01b031690565b60006104328261059c565b9050806001600160a01b0316836001600160a01b0316036104a45760405162461bcd60e51b815260206004820152602160248201527f4552433732313a20617070726f76616c20746f2063757272656e74206f776e656044820152603960f91b60648201526084015b60405180910390fd5b336001600160a01b03821614806104c057506104c081336102db565b6105325760405162461bcd60e51b815260206004820152603d60248201527f4552433732313a20617070726f76652063616c6c6572206973206e6f7420746f60448201527f6b656e206f776e6572206f7220617070726f76656420666f7220616c6c000000606482015260840161049b565b61053c8383610988565b505050565b61054b33826109f6565b6105675760405162461bcd60e51b815260040161049b90611510565b61053c838383610a75565b61053c83838360405180602001604052806000815250610781565b6060600a805461037d906114d6565b6000818152600260205260408120546001600160a01b0316806103685760405162461bcd60e51b8152602060048201526018602482015277115490cdcc8c4e881a5b9d985b1a59081d1bdad95b88125160421b604482015260640161049b565b600780546000918261060d8361155d565b919050559050606481106106635760405162461bcd60e51b815260206004820152601d60248201527f436f6d6963426f6f6b3a204d41585f535550504c592072656163686564000000604482015260640161049b565b61066d3382610bd9565b6008805490600061067d8361155d565b909155505060405181815233907f30385c845b448a36257a6a1716e6ad2e1bc2cbe333cde1e69fe849ad6511adfe9060200160405180910390a250565b60006001600160a01b0382166107245760405162461bcd60e51b815260206004820152602960248201527f4552433732313a2061646472657373207a65726f206973206e6f7420612076616044820152683634b21037bbb732b960b91b606482015260840161049b565b506001600160a01b031660009081526003602052604090205490565b60606009805461037d906114d6565b610757610bf3565b6107616000610c4d565b565b60606001805461037d906114d6565b61077d338383610c9f565b5050565b61078b33836109f6565b6107a75760405162461bcd60e51b815260040161049b90611510565b6107b384848484610d6d565b50505050565b60606107c482610929565b60006107db60408051602081019091526000815290565b905060008151116107fb5760405180602001604052806000815250610826565b8061080584610da0565b604051602001610816929190611584565b6040516020818303038152906040525b9392505050565b610835610bf3565b600b5460ff16156108935760405162461bcd60e51b815260206004820152602260248201527f436f6d6963426f6f6b3a20495046532043494420697320616c72656164792073604482015261195d60f21b606482015260840161049b565b600a61089f8282611601565b5050600b805460ff19166001179055565b6108b8610bf3565b6001600160a01b03811661091d5760405162461bcd60e51b815260206004820152602660248201527f4f776e61626c653a206e6577206f776e657220697320746865207a65726f206160448201526564647265737360d01b606482015260840161049b565b61092681610c4d565b50565b6000818152600260205260409020546001600160a01b03166109265760405162461bcd60e51b8152602060048201526018602482015277115490cdcc8c4e881a5b9d985b1a59081d1bdad95b88125160421b604482015260640161049b565b600081815260046020526040902080546001600160a01b0319166001600160a01b03841690811790915581906109bd8261059c565b6001600160a01b03167f8c5be1e5ebec7d5bd14f71427d1e84f3dd0314c0f7b2291e5b200ac8c7c3b92560405160405180910390a45050565b600080610a028361059c565b9050806001600160a01b0316846001600160a01b03161480610a4957506001600160a01b0380821660009081526005602090815260408083209388168352929052205460ff165b80610a6d5750836001600160a01b0316610a6284610400565b6001600160a01b0316145b949350505050565b826001600160a01b0316610a888261059c565b6001600160a01b031614610aae5760405162461bcd60e51b815260040161049b906116c1565b6001600160a01b038216610b105760405162461bcd60e51b8152602060048201526024808201527f4552433732313a207472616e7366657220746f20746865207a65726f206164646044820152637265737360e01b606482015260840161049b565b826001600160a01b0316610b238261059c565b6001600160a01b031614610b495760405162461bcd60e51b815260040161049b906116c1565b600081815260046020908152604080832080546001600160a01b03199081169091556001600160a01b0387811680865260038552838620805460001901905590871680865283862080546001019055868652600290945282852080549092168417909155905184937fddf252ad1be2c89b69c2b068fc378daa952ba7f163c4a11628f55a4df523b3ef91a4505050565b61077d828260405180602001604052806000815250610e33565b6006546001600160a01b031633146107615760405162461bcd60e51b815260206004820181905260248201527f4f776e61626c653a2063616c6c6572206973206e6f7420746865206f776e6572604482015260640161049b565b600680546001600160a01b038381166001600160a01b0319831681179093556040519116919082907f8be0079c531659141344cd1fd0a4f28419497f9722a3daafe3b4186f6b6457e090600090a35050565b816001600160a01b0316836001600160a01b031603610d005760405162461bcd60e51b815260206004820152601960248201527f4552433732313a20617070726f766520746f2063616c6c657200000000000000604482015260640161049b565b6001600160a01b03838116600081815260056020908152604080832094871680845294825291829020805460ff191686151590811790915591519182527f17307eab39ab6107e8899845ad3d59bd9653f200f220920489ca2b5937696c31910160405180910390a3505050565b610d78848484610a75565b610d8484848484610e66565b6107b35760405162461bcd60e51b815260040161049b90611706565b60606000610dad83610f67565b600101905060008167ffffffffffffffff811115610dcd57610dcd611352565b6040519080825280601f01601f191660200182016040528015610df7576020820181803683370190505b5090508181016020015b600019016f181899199a1a9b1b9c1cb0b131b232b360811b600a86061a8153600a8504945084610e0157509392505050565b610e3d838361103f565b610e4a6000848484610e66565b61053c5760405162461bcd60e51b815260040161049b90611706565b60006001600160a01b0384163b15610f5c57604051630a85bd0160e11b81526001600160a01b0385169063150b7a0290610eaa903390899088908890600401611758565b6020604051808303816000875af1925050508015610ee5575060408051601f3d908101601f19168201909252610ee291810190611795565b60015b610f42573d808015610f13576040519150601f19603f3d011682016040523d82523d6000602084013e610f18565b606091505b508051600003610f3a5760405162461bcd60e51b815260040161049b90611706565b805181602001fd5b6001600160e01b031916630a85bd0160e11b149050610a6d565b506001949350505050565b60008072184f03e93ff9f4daa797ed6e38ed64bf6a1f0160401b8310610fa65772184f03e93ff9f4daa797ed6e38ed64bf6a1f0160401b830492506040015b6d04ee2d6d415b85acef81000000008310610fd2576d04ee2d6d415b85acef8100000000830492506020015b662386f26fc100008310610ff057662386f26fc10000830492506010015b6305f5e1008310611008576305f5e100830492506008015b612710831061101c57612710830492506004015b6064831061102e576064830492506002015b600a83106103685760010192915050565b6001600160a01b0382166110955760405162461bcd60e51b815260206004820181905260248201527f4552433732313a206d696e7420746f20746865207a65726f2061646472657373604482015260640161049b565b6000818152600260205260409020546001600160a01b0316156110fa5760405162461bcd60e51b815260206004820152601c60248201527f4552433732313a20746f6b656e20616c7265616479206d696e74656400000000604482015260640161049b565b6000818152600260205260409020546001600160a01b03161561115f5760405162461bcd60e51b815260206004820152601c60248201527f4552433732313a20746f6b656e20616c7265616479206d696e74656400000000604482015260640161049b565b6001600160a01b038216600081815260036020908152604080832080546001019055848352600290915280822080546001600160a01b0319168417905551839291907fddf252ad1be2c89b69c2b068fc378daa952ba7f163c4a11628f55a4df523b3ef908290a45050565b6001600160e01b03198116811461092657600080fd5b6000602082840312156111f257600080fd5b8135610826816111ca565b60005b83811015611218578181015183820152602001611200565b50506000910152565b600081518084526112398160208601602086016111fd565b601f01601f19169290920160200192915050565b6020815260006108266020830184611221565b60006020828403121561127257600080fd5b5035919050565b80356001600160a01b038116811461129057600080fd5b919050565b600080604083850312156112a857600080fd5b6112b183611279565b946020939093013593505050565b6000806000606084860312156112d457600080fd5b6112dd84611279565b92506112eb60208501611279565b9150604084013590509250925092565b60006020828403121561130d57600080fd5b61082682611279565b6000806040838503121561132957600080fd5b61133283611279565b91506020830135801515811461134757600080fd5b809150509250929050565b634e487b7160e01b600052604160045260246000fd5b600067ffffffffffffffff8084111561138357611383611352565b604051601f8501601f19908116603f011681019082821181831017156113ab576113ab611352565b816040528093508581528686860111156113c457600080fd5b858560208301376000602087830101525050509392505050565b600080600080608085870312156113f457600080fd5b6113fd85611279565b935061140b60208601611279565b925060408501359150606085013567ffffffffffffffff81111561142e57600080fd5b8501601f8101871361143f57600080fd5b61144e87823560208401611368565b91505092959194509250565b60006020828403121561146c57600080fd5b813567ffffffffffffffff81111561148357600080fd5b8201601f8101841361149457600080fd5b610a6d84823560208401611368565b600080604083850312156114b657600080fd5b6114bf83611279565b91506114cd60208401611279565b90509250929050565b600181811c908216806114ea57607f821691505b60208210810361150a57634e487b7160e01b600052602260045260246000fd5b50919050565b6020808252602d908201527f4552433732313a2063616c6c6572206973206e6f7420746f6b656e206f776e6560408201526c1c881bdc88185c1c1c9bdd9959609a1b606082015260800190565b60006001820161157d57634e487b7160e01b600052601160045260246000fd5b5060010190565b600083516115968184602088016111fd565b8351908301906115aa8183602088016111fd565b01949350505050565b601f82111561053c57600081815260208120601f850160051c810160208610156115da5750805b601f850160051c820191505b818110156115f9578281556001016115e6565b505050505050565b815167ffffffffffffffff81111561161b5761161b611352565b61162f8161162984546114d6565b846115b3565b602080601f831160018114611664576000841561164c5750858301515b600019600386901b1c1916600185901b1785556115f9565b600085815260208120601f198616915b8281101561169357888601518255948401946001909101908401611674565b50858210156116b15787850151600019600388901b60f8161c191681555b5050505050600190811b01905550565b60208082526025908201527f4552433732313a207472616e736665722066726f6d20696e636f72726563742060408201526437bbb732b960d91b606082015260800190565b60208082526032908201527f4552433732313a207472616e7366657220746f206e6f6e20455243373231526560408201527131b2b4bb32b91034b6b83632b6b2b73a32b960711b606082015260800190565b6001600160a01b038581168252841660208201526040810183905260806060820181905260009061178b90830184611221565b9695505050505050565b6000602082840312156117a757600080fd5b8151610826816111ca56fea264697066735822122071f1ddff7cc0481616ee2764e5b985cf6b51084ade3fd38fbde267a13715d3d764736f6c63430008140033",
  "devdoc": {
    "events": {
      "Approval(address,address,uint256)": {
        "details": "Emitted when `owner` enables `approved` to manage the `tokenId` token."
      },
      "ApprovalForAll(address,address,bool)": {
        "details": "Emitted when `owner` enables or disables (`approved`) `operator` to manage all of its assets."
      },
      "Transfer(address,address,uint256)": {
        "details": "Emitted when `tokenId` token is transferred from `from` to `to`."
      }
    },
    "kind": "dev",
    "methods": {
      "approve(address,uint256)": {
        "details": "See {IERC721-approve}."
      },
      "balanceOf(address)": {
        "details": "See {IERC721-balanceOf}."
      },
      "getApproved(uint256)": {
        "details": "See {IERC721-getApproved}."
      },
      "isApprovedForAll(address,address)": {
        "details": "See {IERC721-isApprovedForAll}."
      },
      "name()": {
        "details": "See {IERC721Metadata-name}."
      },
      "owner()": {
        "details": "Returns the address of the current owner."
      },
      "ownerOf(uint256)": {
        "details": "See {IERC721-ownerOf}."
      },
      "renounceOwnership()": {
        "details": "Leaves the contract without owner. It will not be possible to call `onlyOwner` functions. Can only be called by the current owner. NOTE: Renouncing ownership will leave the contract without an owner, thereby disabling any functionality that is only available to the owner."
      },
      "safeTransferFrom(address,address,uint256)": {
        "details": "See {IERC721-safeTransferFrom}."
      },
      "safeTransferFrom(address,address,uint256,bytes)": {
        "details": "See {IERC721-safeTransferFrom}."
      },
      "setApprovalForAll(address,bool)": {
        "details": "See {IERC721-setApprovalForAll}."
      },
      "supportsInterface(bytes4)": {
        "details": "See {IERC165-supportsInterface}."
      },
      "symbol()": {
        "details": "See {IERC721Metadata-symbol}."
      },
      "tokenURI(uint256)": {
        "details": "See {IERC721Metadata-tokenURI}."
      },
      "transferFrom(address,address,uint256)": {
        "details": "See {IERC721-transferFrom}."
      },
      "transferOwnership(address)": {
        "details": "Transfers ownership of the contract to a new account (`newOwner`). Can only be called by the current owner."
      }
    },
    "version": 1
  },
  "userdoc": {
    "kind": "user",
    "methods": {},
    "version": 1
  },
  "storageLayout": {
    "storage": [
      {
        "astId": 138,
        "contract": "contracts/ComicBook.sol:ComicBook",
        "label": "_name",
        "offset": 0,
        "slot": "0",
        "type": "t_string_storage"
      },
      {
        "astId": 140,
        "contract": "contracts/ComicBook.sol:ComicBook",
        "label": "_symbol",
        "offset": 0,
        "slot": "1",
        "type": "t_string_storage"
      },
      {
        "astId": 144,
        "contract": "contracts/ComicBook.sol:ComicBook",
        "label": "_owners",
        "offset": 0,
        "slot": "2",
        "type": "t_mapping(t_uint256,t_address)"
      },
      {
        "astId": 148,
        "contract": "contracts/ComicBook.sol:ComicBook",
        "label": "_balances",
        "offset": 0,
        "slot": "3",
        "type": "t_mapping(t_address,t_uint256)"
      },
      {
        "astId": 152,
        "contract": "contracts/ComicBook.sol:ComicBook",
        "label": "_tokenApprovals",
        "offset": 0,
        "slot": "4",
        "type": "t_mapping(t_uint256,t_address)"
      },
      {
        "astId": 158,
        "contract": "contracts/ComicBook.sol:ComicBook",
        "label": "_operatorApprovals",
        "offset": 0,
        "slot": "5",
        "type": "t_mapping(t_address,t_mapping(t_address,t_bool))"
      },
      {
        "astId": 7,
        "contract": "contracts/ComicBook.sol:ComicBook",
        "label": "_owner",
        "offset": 0,
        "slot": "6",
        "type": "t_address"
      },
      {
        "astId": 2798,
        "contract": "contracts/ComicBook.sol:ComicBook",
        "label": "_nextTokenId",
        "offset": 0,
        "slot": "7",
        "type": "t_uint256"
      },
      {
        "astId": 2804,
        "contract": "contracts/ComicBook.sol:ComicBook",
        "label": "purcsedTokenCount",
        "offset": 0,
        "slot": "8",
        "type": "t_uint256"
      },
      {
        "astId": 2809,
        "contract": "contracts/ComicBook.sol:ComicBook",
        "label": "_baseTokenURI",
        "offset": 0,
        "slot": "9",
        "type": "t_string_storage"
      },
      {
        "astId": 2811,
        "contract": "contracts/ComicBook.sol:ComicBook",
        "label": "ipfsCid",
        "offset": 0,
        "slot": "10",
        "type": "t_string_storage"
      },
      {
        "astId": 2814,
        "contract": "contracts/ComicBook.sol:ComicBook",
        "label": "isBookIpfsCidSet",
        "offset": 0,
        "slot": "11",
        "type": "t_bool"
      }
    ],
    "types": {
      "t_address": {
        "encoding": "inplace",
        "label": "address",
        "numberOfBytes": "20"
      },
      "t_bool": {
        "encoding": "inplace",
        "label": "bool",
        "numberOfBytes": "1"
      },
      "t_mapping(t_address,t_bool)": {
        "encoding": "mapping",
        "key": "t_address",
        "label": "mapping(address => bool)",
        "numberOfBytes": "32",
        "value": "t_bool"
      },
      "t_mapping(t_address,t_mapping(t_address,t_bool))": {
        "encoding": "mapping",
        "key": "t_address",
        "label": "mapping(address => mapping(address => bool))",
        "numberOfBytes": "32",
        "value": "t_mapping(t_address,t_bool)"
      },
      "t_mapping(t_address,t_uint256)": {
        "encoding": "mapping",
        "key": "t_address",
        "label": "mapping(address => uint256)",
        "numberOfBytes": "32",
        "value": "t_uint256"
      },
      "t_mapping(t_uint256,t_address)": {
        "encoding": "mapping",
        "key": "t_uint256",
        "label": "mapping(uint256 => address)",
        "numberOfBytes": "32",
        "value": "t_address"
      },
      "t_string_storage": {
        "encoding": "bytes",
        "label": "string",
        "numberOfBytes": "32"
      },
      "t_uint256": {
        "encoding": "inplace",
        "label": "uint256",
        "numberOfBytes": "32"
      }
    }
  }
}